:400000000040002011000000F5050000F505000010B500F00FFBC04610B512222E4B1A60302000F015FF2D4A2D4B1A60BC2292012C4B1A602C4B2D4919602D490A602D4ACE
:400040001A60FE2212022C490A602C4919602C490A602C4A1A60CC2189012B4A11602B4A1A60802189002A4A11602A4A1A60E8214901294A1160294A1A6082221206284B9A
:400080001A608022D202274B1A604423264A1360264A1360264A1360264A13604522264B1A60053A254B1A600132254B1A600532244B1A60043A244B1A600132234B1A6077
:4000C0002349072000F0FCFD072000F0EDFD0022204B1A6010BDC046300010400600008004010B40100301400000014044FF00801403014045FF00800003014040FF0080DC
:400100000403014041FF00801803014046FF00800803014042FF00800C03014043FF008008010B4000010B404801014034010140300101402C010140280101401C0101402F
:4001400018010140140101400C01014008010140A50F00000C020B4010B572B60122474B1A7000240FE046486200131959000B00411889881A5AC31858880004104300F08B
:4001800001FA0134E4B2012CEDD93D4801000C31443000F0DDF93B4A3B4B1A603B4A3C4B1A603C4A3C4B1A60EE2212023B4B1A6099223B4B1A6099231B043A4A13603A49C3
:4001C0003A4A116080218903394A1160394A1360394A1360394A3A4B1A600121394B1960394803783C22934314221343DBB20370364A107816230343DBB213702F23344A39
:4002000013603448344A1060344A13604322344B1A60344A344B1A608022344B1A605D32334B1A60334A344B1A600823334A13608D20334A10608A38324A1060D920000126
:40024000314A1060314A1360314B19600423314A1360314A13601C33304A1360304A13601E3B304A136030312F4A11602F4A1360FFF7D2FE00F09CF910BDC0461C700F400E
:400280008C1C00000000FFFF00000240EE000008000102400000080800020240000302400007024000500F400400990010500F4014500F4020500F4030500F4010BB0B0039
:4002C000A00120402000104001700F4000700F40000004400010270008000440180004400001044064621B00080104400C0104400002044088601800080204400C02044041
:400300001802044000030440080304400C030440180304400004044018040440000604401806044000070440080704401807044010B5064C2378002B07D1054B002B02D0C0
:40034000044800E000BF0123237010BD48010020000000006C1C0000084B10B5002B03D00749084800E000BF07480368002B00D110BD064B002BFBD09847F9E7000000003F
:400380004C0100206C1C0000C00000200000000070B5104B1C68E30719D50F4B1A680F4B1A60002000F076FA0D4D2880012000F071FA6880022000F06DFAA880032000F042
:4003C00069FAE880074A116801230B431360064B1C6070BD1C023A403C023A4030023A40A00100206401002010023A4010B5002903D1002839DB002039E0002903DA4042FC
:400400004942042400E00024002803DC4342023408001900884203DC0B1A4018013419002403CB030100180000F0D2FE43424343DB138E22D2005A43D2130D498C46624415
:400440005A43D2130B498C4662445A43D2130A498C4662445343DB13084A944663445843C0130430C010201801E08020C00110BD291000000B1F00004C360000FCA200004E
:40048000F0B5C5B000F016FB2C4800F0B9FB00F0E7F900F0F5F92A4800F0E4FB62B600F0E5FA00F073FA0026002500F093FBC4B2002CFAD0FF23184000F01AFB732C19D199
:4004C000204B9A8812B2F53AFF3ADF883FB2C83F390003921000FFF789FF5B2100F0EEFD00903B00039A184905A800F09BFF05A800F086FB322C02D1013D00D50025382C46
:4005000006D10135114B1B689D4201DD0F4B1D68342C02D1013E00D50026362C06D101360A4B1B689E4201DD084B1E68280000F04DFA300000F0DAF9B7E7C046701C000065
:4005400091030000A00100207C1C0000D4022040F0B50025002711E0BB00C658F3B2FF22964308E06A008A181478A419527822700135013BDBB2002BF4D10137062FEBD945
:40058000F0BDC04610B50A00002100F042FF10BD064B1B68002803D080221206134301E05B005B08014A13607047C04680033A4010B50323094A1360094A13608022120673
:4005C000084B1A608D23084A1360084A13600022074B1A600120FFF7DBFF10BD300030403000314000003A4000033A4040033A40000E3F4010B500F0D7FE03680C2B00D1C9
:40060000FEE7FEE710B50300084A1068C318084A9A1A802A02DC054A136005E000F0C4FE0C2303600120404210BDC046C4000020C801002070B50F4E0F4D13E029686B6892
:40064000AC68002202E001C901C30432A242FAD1E868002202E0002102C304328242FAD11035013E002EE9D100F0A4FEFFF708FFFEE7C04601000000A01D000010B50E4A2F
:40068000136801218B43136000230AE0032B03D89A000A49505800E009489900094A885001332F2BF2D9FFF757FD034A116801230B43136010BDC04600001040000000004B
:4006C000F50500000000002010B50321102000F009FB3E49102000F0F3FA0F223C4B1A603C4B1B68002B01DA3B4900E03B493C4A13680B4313603B4A3B4B1A603B4A3C4BC2
:400700001A6000233B4A13603B493C4A11603C493C4A11603C4A13603C4A136001333C4A13603C4908683C4A024013430B60002248E03A4891000C58DC239B012340801839
:40074000007C03433648844661440B60E30707D52D480168012393401B041B0C0B43036093002E495B589B0707D528480168012393401B041B0C0B43036093002749595817
:400780008B0502D58020400001E080204001CB0504D45300002423495C5203E05300002420495C52204B43438021C9008C466344D9174905490DCB18DB121BB290001B498D
:4007C00043500132032AB4D910BDC046C108000020003A4080033A40402E1013402E001300003A40A800008004003A400000FF0718003A401C003A40E903040010003A406C
:400800000400040014003A4028023A4038023A4018023A4030003A40FFFFFFDFEC1C000080003A40B801002010270000A801002010B5094B1B68002B0CDB084B1B68002B26
:40084000FBDB054A1368802109060B4313600A2000F03EFB10BDC04600003A4008023A4010B5064B1B78002B04D1FFF72DFF0122024B1A70FFF7DCFF10BDC0466801002051
:40088000034A1368802149020B4313607047C04604003A4010B50400032802D9002000F00DFA032C07D8A400044B9C46644420680004000C00E0002000B210BD80013A4005
:4008C000014B1A681A60704710023A400004000C014B18607047C046C80220400004000C014B18607047C046D40220400004000C014B18607047C046CC02204070B5040003
:400900000D0000F0AAFBAC40024B1C6000F0A9FB70BDC0460800204010B500F09EFB064A116880230B43136000F09BFB18218020FFF7E4FF10BDC04600002040014B186087
:400940007047C046F802204010B50D4C8023DB042360236823600020FFF7B8FF236823600C22084B1A600120FFF7E8FF3122064B1A606420FFF7B2FF1420FFF7B7FF10BD65
:40098000C0022040E4022040E802204010B5064B1B78002B04D1FFF7D7FF0122024B1A70FFF7BAFF10BDC046690100200004000C014B18607047C046480120400004000CC0
:4009C000014B18607047C046540120400004000C014B18607047C0464C01204070B504000D0000F03AFBAC40024B1C6000F039FB70BDC0460800204010B500F02EFB064A86
:400A0000116802230B43136000F02BFB18210220FFF7E4FF10BDC04600002040014B18607047C0467801204010B50D4C8023DB042360236823600020FFF7B8FF2368236074
:400A40000C22084B1A600120FFF7E8FF3122064B1A606420FFF7B2FF1420FFF7B7FF10BD40012040640120406801204010B5064B1B78002B04D1FFF7D7FF0122024B1A70E9
:400A8000FFF7BAFF10BDC0466A01002010B500F08FF810BD10B500F039F810BD10B5044A1368802109060B431360FFF7EFFF10BD0000274010B5064B1B78002B04D1FFF7B7
:400AC000E9FF0122024B1A70FFF7E8FF10BDC0466C010020014B18687047C04640032740024B1B681F2018407047C04608032740044B1B681F221340082BF9D0024B1860E7
:400B00007047C046080227404002274010B5154A154B1A600023154A13600121144A1160144A15480260072414480460144803601448016014490A60144A13600421144A5B
:400B40001160144A1360144A1360144A1360144A1360144A1360144A13601268134B1A8010BDC04607000002000027404000274048002740070000800003274004032740B4
:400B80001003274044002740000227400402274050002740880E2740C80E2740480F2740080F2740C80F2740880F27406E01002005490B68F0229343603A13430B60034BF0
:400BC0001A88034B1A607047000702406E010020880F274010B5FFF783FF002802D0FFF779FF00E00020054B1A68D8239B001A4203D01A00014B1A60002010BDC00F2740BF
:400C000070B50500002402E0FFF772FF0134285D0028F9D170BDC0468023014AD05070470000002010B5040000F017FA044A1368C0218B43A4011C43146000F012FA10BDD6
:400C400010E400E080225202014B1A607047C04600E100E080225202014B1A607047C04680E100E010B50400FFF7F4FF2000FFF7D3FF0320FFF7D6FFFFF7E4FF10BDC04678
:400C8000024A1168024B0B401360704700002240FFFFFFBF034B18688023DB05184000D001207047000022401F2318401E3B8340014A13607047C04600E100E001BE704774
:400CC00070B504000D001F2802D90020FFF7F6FF1034A40080239B059C4664442068256070BDC04670B504000E00032902D90020FFF7E4FF1F2C02D90020FFF7DFFF032523
:400D00002540ED00063500F0A8F9A408A400074B9C46644421680323AB4099430B003100A9401943216000F09CF970BD00E400E010B5040006E0084B586800F085F9074BF9
:400D40009C46644480231B029C42F4D8024B9868604300F079F910BDC80000200080FFFF30B583B000F0C8F800285AD000F075F9040000230AE02C4A12683F210A402B4963
:400D8000C95C8A4201D1033303E001332D2BF2D90323274A1268D20606D1254802681F218A4313390A430260224A1168224A0A40224959438020C00184466144C90B0139E1
:400DC0004905490D0A43A021490311430800192B02D81B4B1A430EE01A4A9A1812781A3B1249C9183023CB5CD318FF2B00D9FF239B0502001A430F4B1A60134D2B680193B5
:400E0000302000F031F9114A13688021C9050B4313601420FFF78CFF019B2B60200000F020F903B030BDC0462CFF0B40001D000034FF0B400800224000F800C040420F00D3
:400E40000000D43FCDF1FF0F300010400000224030B587B0040000F000F90500FFF71AFF002803D0FFF70CFF012100E00021104B1B6800930F4B1B680193033C0E4B1B5D83
:400E800002930E4B1B68039304AA0D4B04936B4605930C4B1A600C480C4A10601B68012901D1FFF75DFF280000F0DBF807B030BD08010B4000010B40001D000030001040BD
:400EC000B6EA000008001040170000800400104010B5034B1B7B584300F0B6F810BDC046C8000020034B1868C0231B02184000D00120704700010B40034B1B68002B01DA81
:400F0000012000E0002070470000224010B500F0A4F8044A1368C02109020B43136000F0A0F810BD00010B4010B500F096F808490A68084B1A408024E40122430A600A6892
:400F400013408022120213430B6000F08AF810BD00010B40FF3FFFFF70B5050000F07DF80400FFF7BFFF002803D0FFF7DDFF012100E0002108482840084A1568084B2B4064
:400F8000184310601368012901D1FFF7BFFF200000F067F870BDC0460404040010020B40FBFBFBFF10B5244B1B685B0715D5234B5B685B070ED5224B596A042001401F4CC7
:400FC00062688A4362605A6A82435A629B69002B00D098470420FFF7BFFF174B1B685B0518D5164B5B685B0510D5154B596A8022D2001140114842688A434260596A114A8A
:401000000A405A62DB69002B00D098478020C000FFF7A2FF084B1B685B030CD5074B5B685B0304D5064B1B6A002B00D098478020C002FFF791FF10BD10020B40DC00002076
:4010400070010020FFFBFFFF0230800803D00138FDD1C046C046C0467047EFF3108072B6704780F31088704770B50400FFF7F5FF0500102C05D8104A136803218B4313600C
:4010800016E0202C07D80C490B6803229343023A13430B600CE0302C07D807490B6803229343013A13430B6002E00020FFF706FE2800FFF7D6FF70BD300010400022430865
:4010C0008B4274D303098B425FD3030A8B4244D3030B8B4228D3030C8B420DD3FF22090212BA030C8B4202D31212090265D0030B8B4219D300E0090AC30B8B4201D3CB034A
:40110000C01A5241830B8B4201D38B03C01A5241430B8B4201D34B03C01A5241030B8B4201D30B03C01A5241C30A8B4201D3CB02C01A5241830A8B4201D38B02C01A524174
:40114000430A8B4201D34B02C01A5241030A8B4201D30B02C01A5241CDD2C3098B4201D3CB01C01A524183098B4201D38B01C01A524143098B4201D34B01C01A5241030982
:401180008B4201D30B01C01A5241C3088B4201D3CB00C01A524183088B4201D38B00C01A524143088B4201D34B00C01A5241411A00D20146524110467047FFE701B50020D9
:4011C00000F0F0F802BDC0460029F7D076E7704703460B437FD4002243088B4274D303098B425FD3030A8B4244D3030B8B4228D3030C8B420DD3FF22090212BA030C8B4281
:4012000002D31212090265D0030B8B4219D300E0090AC30B8B4201D3CB03C01A5241830B8B4201D38B03C01A5241430B8B4201D34B03C01A5241030B8B4201D30B03C01AA6
:401240005241C30A8B4201D3CB02C01A5241830A8B4201D38B02C01A5241430A8B4201D34B02C01A5241030A8B4201D30B02C01A5241CDD2C3098B4201D3CB01C01A5241F6
:4012800083098B4201D38B01C01A524143098B4201D34B01C01A524103098B4201D30B01C01A5241C3088B4201D3CB00C01A524183088B4201D38B00C01A524143088B425C
:4012C00001D34B00C01A5241411A00D201465241104670475DE0CA0F00D04942031000D34042534000229C4603098B422DD3030A8B4212D3FC22890112BA030A8B420CD319
:40130000890192118B4208D3890192118B4204D389013AD0921100E08909C3098B4201D3CB01C01A524183098B4201D38B01C01A524143098B4201D34B01C01A52410309E0
:401340008B4201D30B01C01A5241C3088B4201D3CB00C01A524183088B4201D38B00C01A5241D9D243088B4201D34B00C01A5241411A00D20146634652415B10104601D3F7
:401380004042002B00D54942704763465B1000D3404201B5002000F005F802BD0029F8D016E770477047C046014B18687047C046440100200E4B70B500251E000D4CE41A16
:4013C000A410A54204D0AB00F35898470135F8E700F0D4FC084B00251E00084CE41AA410A54204D0AB00F35898470135F8E770BD881D0000881D0000881D0000901D0000CA
:40140000002310B59A4203D0CC5CC4540133F9E710BD03008218934202D019700133FAE7704700000EB410B59DB002A9029008610B48822488604861012040421FABC881A1
:40144000084804CBA400006801938C8100F06EF80023029A13701DB010BC08BC03B01847FFFFFF7F44010020F0B58E6885B007000C00039201939E4243D890238A89DB0010
:401480001A423ED003250969236801985B1A029363695D43EB0F5D19029B6D1001331B18AB4200D91D00530510D52900380000F037FB061E14D0029A2169FFF7A1FFA2890B
:4014C000194B134080221343A38112E02A00380000F086FB061E0CD12169380000F0D4FA0C23402201203B60A38940421343A38117E0029B2661F61826606561019EED1A43
:40150000A560019BB34200D21E0032000399206800F0A5FA0020A3689B1BA36023689E19266005B0F0BDC0467FFBFFFFF0B59FB0029005938B890F0016001B0610D50B69E3
:40154000002B0DD1402100F0EBFA38603861002804D10C23029A01381360D8E040237B61002306AD6B6120336B761033AB7634002378002B03D1A31B049312D003E0252B1E
:40158000F9D00134F4E7A31B320039000298FFF76BFF431C00D1B4E06A69049B944663446B612378002B00D1ABE00122002352426A6002A95432521801342B60EB60AB6035
:4015C0001370AB65534E21780522300000F03CFA002807D00123801B83402A68013413432B60EFE72B68DA0604D55322202102A8121811701A0704D553222B2102A81218BC
:40160000117022782A2A03D0099B00200A210EE0059A111D12680591002A01DB099204E05242EA60022213432B6001340BE02278303A092A04D84B4301349B180120F6E79F
:40164000002800D0099323782E2B1ED163782A2B0AD1059B02341A1D1B680592002B01DA01235B42079310E000230A201A0001346B6021783039092904D8424301345218D5
:401680000123F6E7002B00D00792234E21780322300000F0D9F9002806D04023801B83402A68013413432B60217806221B48661C297600F0C9F9002812D0194B002B06D1A6
:4016C0000722059B073393430833059314E005AB00933A00134B2900029800E000BF07E005AB00933A000F4B2900029800F08AF80390039B013304D06B69039A9B186B61F1
:4017000035E7BB890B985B0601D5012040421FB0F0BDC046491D00004F1D0000531D00000000000069140000F7B5170001938A680B6900900C00934200DA130022003B60B3
:4017400043321278002A01D001333B6023689B0602D53B6802333B60062523681D401ED0230043331B785A1E9341226892061CD53020E1184331087021005A1C45310978DB
:40178000A2184332023311700FE022000123193201990098089EB047431C0ED00135E3683A689B1A9D42F0DBDAE72200019943320098089DA847431C02D10120404220E043
:4017C00006232068E1683A6803400025042B03D18D1AEB43DB171D40A3682269934201DD9B1AED180027BD420AD0220001231A3201990098089EB047431CDED00137F2E73C
:401800000020FEBDF0B58BB006920A0043320793059004920A7E0C00109B6E2A00D1ABE011D8632A22D009D8002A00D1B5E0582A00D0C5E045310A70814A4FE0642A1DD0A9
:40184000692A1BD0BCE0732A00D1AAE009D86F2A29D0702A00D0B3E0202209680A43226037E0752A1FD0782A33D0A9E00E001A684236111D196013683370A4E021681A6835
:40188000080606D4490604D5111D19600023D55E02E0111D19601568002D3BDA2D23049A6D42137036E021681A68080606D4490604D51568111D1960ADB202E0111D196076
:4018C00015685F4B227E039308276F2A1DD00A271BE022007821453211705A4A19680392081D226818600D68100602D4500600D5ADB2D30702D520231A4322601027002DF4
:4019000003D1202322689A4322602300002243331A7002E00A274A4B03936368A360002B09DB0422216891432160002D05D1049E002B11D07BE0002D79D0049E28003900BE
:40194000FFF742FC039B013E5B5C280033703900FFF7B4FB051EF1D1082F09D12368DB0706D563682269934202DC3023013E3370049B9B1B23612BE009681A68080607D4BA
:40198000490605D5111D19601368A28A1A8004E0111D1960136862691A600023049E236116E01A68111D1960166800216268300000F04AF8002801D0801B6060636803E096
:4019C000260042363270012323610023049A1370079B09AA00932100069B0598FFF7A4FE431C02D10120404227E02369320006990598079DA847431CF4D0236800259B07FE
:401A00000FD4099BE068984217DA180015E022000123193206990598079EB047431CE1D00135E368099A9B1A9D42F0DBE9E72600039B42361B7833708EE70BB0F0BDC046DE
:401A40005A1D00006B1D0000C9B28218904204D003788B4202D00130F8E70020704710B5884202D98B18984201D3002305E09B1A013A08D3995C8154FAE7934203D0CC5CA2
:401A8000C4540133F9E710BD70B50500002944D00C1F2368002B00DAE418280000F0D8F81E4A13681100002B02D16360146031E0A3420DD92268A018834203D118685B6804
:401AC0008218226063600C6024E0A24203D813005A68002AF9D11E689819A0420BD12168711858181960824214D110685268411819605A600EE0A04202D90C232B6009E06A
:401B000021686018824203D1106852684118216062605C60280000F09CF870BD9C010020032370B5CD1C9D43083506000C2D01D20C2501E0002D01DBA94202D90C233360E6
:401B400048E0300000F084F8234B1C681A002100002913D00B685B1B0DD40B2B02D90B60CC181EE08C4202D1636813601AE04B6863600C0016E00C004968E9E7174C236874
:401B8000002B03D1300000F051F820602900300000F04CF8431C18D00323C41C9C43A0420DD12560300000F054F8200007220B30231D9043C31A0ED05A42E2500BE0211A8D
:401BC000300000F033F8431CEBD10C233000336000F03FF8002070BD9C01002098010020F8B506000C001500002904D11100FFF797FF040018E0002A03D1FFF745FF2C00D4
:401C000012E000F027F885420ED929003000FFF787FF071E07D021002A00FFF7F1FB21003000FFF731FF3C002000F8BD002370B5064C050008002360FEF7E4FC431C03D13D
:401C40002368002B00D02B6070BDC046C0010020704770470B1F1A68101F002A04DA891804390B68D01804387047000000000000007830434F6B0D0A000000002025642C31
:401C80002564203D2025640D0A00000000300F40000400400F40000438223E1158045F011C401D2089208C402E046A04CA80DA4002044604C040D02070017410DC03881045
:401CC0008C019402A410E002E40102011101000004320F4004330F4004400F4004410F4003420F4006430F4002600F400004000000040000001400000014000000070203E6
:401D0000030405060708090A0B0C0E0F101112131415161718191B1C1D1E1F2021222325262728292A2B2E2F3031323334350000EEDBC9B9AA9B8E82766B60564D443B337D
:401D40002C241D17100A044300232D302B2000686C4C006566674546470030313233343536373839414243444546003031323334353637383961626364656600F8B5C046D8
:401D8000F8BC08BC9E467047590300007D060000F8B5C046F8BC08BC9E46704731030000B01D0000C0000020880000008000000000000000C8010020010000000000C05D7B
:401DC00080BB000030000000006CDC02F0000000040404000000000000000000000000000000000000000000000000000000000000000000471D00000000000000000000CE
:401E000000000000000000000000000000000000000000000000000000000000000000000000000000000000000000000000000000000000E400002000000000000000009E
:401E40000000000000000000000000000000000000000000000000000000000000000000000000000000000000000000000000000000000000000000000000000000000062
:401E80000000000000000000000000000000000000000000000000000000000000000000000000000000000000000000000000000000000000000000000000000000000022
:401EC00000000000000000000000000000000000000000000000000000000000000000000000000000000000000000000000000000000000000000000000000000000000E2
:401F000000000000000000000000000000000000000000000000000000000000000000000000000000000000000000000000000000000000000000000000000000000000A1
:020000040001F9
:0200000490303A
:0200000023FBE0
:0200000490402A
:4000000000000000000000000000000000000000000000000000000000000000000000000000000000000000000000000000000000000000000000000000000000000000C0
:400040000000000000000000000000000000000000000000000000000000000000000000000000000000000000000000000000000000000000000000000000000000000080
:0200000490501A
:0C0000000002112D11A100011136359CE9
:0200000490600A
:0100000001FE
:00000001FF